{
  "_format": "hh-sol-artifact-1",
  "contractName": "VotePortal",
  "sourceName": "contracts/VotePortal.sol",
  "abi": [
    {
      "inputs": [],
      "stateMutability": "nonpayable",
      "type": "constructor"
    },
    {
      "anonymous": false,
      "inputs": [
        {
          "indexed": true,
          "internalType": "address",
          "name": "from",
          "type": "address"
        },
        {
          "indexed": false,
          "internalType": "uint256",
          "name": "timestamp",
          "type": "uint256"
        }
      ],
      "name": "NewCandidate",
      "type": "event"
    },
    {
      "inputs": [],
      "name": "Candidacy",
      "outputs": [],
      "stateMutability": "nonpayable",
      "type": "function"
    },
    {
      "inputs": [],
      "name": "GetAllCandidacyList",
      "outputs": [
        {
          "components": [
            {
              "internalType": "address",
              "name": "Candidacy",
              "type": "address"
            },
            {
              "internalType": "uint256",
              "name": "timestamp",
              "type": "uint256"
            }
          ],
          "internalType": "struct VotePortal.CandidacyList[]",
          "name": "",
          "type": "tuple[]"
        }
      ],
      "stateMutability": "view",
      "type": "function"
    }
  ],
  "bytecode": "0x608060405234801561001057600080fd5b506100596040518060400160405280601a81526020017f566f7465506f7274616c202d2043616e6469646163794c69737400000000000081525061005e60201b61025a1760201c565b6101d8565b6100fa8160405160240161007291906101b6565b6040516020818303038152906040527f41304fac000000000000000000000000000000000000000000000000000000007bffffffffffffffffffffffffffffffffffffffffffffffffffffffff19166020820180517bffffffffffffffffffffffffffffffffffffffffffffffffffffffff83818316178352505050506100fd60201b60201c565b50565b60008151905060006a636f6e736f6c652e6c6f679050602083016000808483855afa5050505050565b600081519050919050565b600082825260208201905092915050565b60005b83811015610160578082015181840152602081019050610145565b60008484015250505050565b6000601f19601f8301169050919050565b600061018882610126565b6101928185610131565b93506101a2818560208601610142565b6101ab8161016c565b840191505092915050565b600060208201905081810360008301526101d0818461017d565b905092915050565b610663806101e76000396000f3fe608060405234801561001057600080fd5b50600436106100365760003560e01c806397e58b391461003b578063bfb3b3c214610045575b600080fd5b610043610063565b005b61004d61019b565b60405161005a91906104f0565b60405180910390f35b6100a26040518060400160405280600c81526020017f25732063616e6469646174650000000000000000000000000000000000000000815250336102f3565b600060405180604001604052803373ffffffffffffffffffffffffffffffffffffffff16815260200142815250908060018154018082558091505060019003906000526020600020906002020160009091909190915060008201518160000160006101000a81548173ffffffffffffffffffffffffffffffffffffffff021916908373ffffffffffffffffffffffffffffffffffffffff1602179055506020820151816001015550503373ffffffffffffffffffffffffffffffffffffffff167fdb15a2508352c24977039bcf8ce962ece3beb0dc165c3e65585063f5e4856090426040516101919190610521565b60405180910390a2565b60606000805480602002602001604051908101604052809291908181526020016000905b8282101561025157838290600052602060002090600202016040518060400160405290816000820160009054906101000a900473ffffffffffffffffffffffffffffffffffffffff1673ffffffffffffffffffffffffffffffffffffffff1673ffffffffffffffffffffffffffffffffffffffff168152602001600182015481525050815260200190600101906101bf565b50505050905090565b6102f08160405160240161026e91906105cc565b6040516020818303038152906040527f41304fac000000000000000000000000000000000000000000000000000000007bffffffffffffffffffffffffffffffffffffffffffffffffffffffff19166020820180517bffffffffffffffffffffffffffffffffffffffffffffffffffffffff838183161783525050505061038f565b50565b61038b82826040516024016103099291906105fd565b6040516020818303038152906040527f319af333000000000000000000000000000000000000000000000000000000007bffffffffffffffffffffffffffffffffffffffffffffffffffffffff19166020820180517bffffffffffffffffffffffffffffffffffffffffffffffffffffffff838183161783525050505061038f565b5050565b60008151905060006a636f6e736f6c652e6c6f679050602083016000808483855afa5050505050565b600081519050919050565b600082825260208201905092915050565b6000819050602082019050919050565b600073ffffffffffffffffffffffffffffffffffffffff82169050919050565b600061040f826103e4565b9050919050565b61041f81610404565b82525050565b6000819050919050565b61043881610425565b82525050565b6040820160008201516104546000850182610416565b506020820151610467602085018261042f565b50505050565b6000610479838361043e565b60408301905092915050565b6000602082019050919050565b600061049d826103b8565b6104a781856103c3565b93506104b2836103d4565b8060005b838110156104e35781516104ca888261046d565b97506104d583610485565b9250506001810190506104b6565b5085935050505092915050565b6000602082019050818103600083015261050a8184610492565b905092915050565b61051b81610425565b82525050565b60006020820190506105366000830184610512565b92915050565b600081519050919050565b600082825260208201905092915050565b60005b8381101561057657808201518184015260208101905061055b565b60008484015250505050565b6000601f19601f8301169050919050565b600061059e8261053c565b6105a88185610547565b93506105b8818560208601610558565b6105c181610582565b840191505092915050565b600060208201905081810360008301526105e68184610593565b905092915050565b6105f781610404565b82525050565b600060408201905081810360008301526106178185610593565b905061062660208301846105ee565b939250505056fea2646970667358221220bb7530eaff722e3e22bc835471726221d120a7d9d3ed62134ea69c3ee1a03e9064736f6c63430008110033",
  "linkReferences": {},
  "deployedLinkReferences": {}
}